:0600000000003628003468
:08000800A200030E8301A10018
:100010000A088A01A0000408C30083120B1C2A28C6
:10002000051E142805192328C2018312851AC20A45
:100030004208013A031D202885121430DE202828AA
:100040008312851028288312051C282885168514FC
:1000500083120B100130DE204308840020088A0040
:100060008301210E8300A20E220E09004B30AE0048
:100070000130AF00803000000000FB2000000000D5
:1000800083120000B1002F08B0004D30B2000130E3
:10009000B300831200003008B4003108B500FF300F
:1000A000B007031CB103350834040319CE2804300B
:1000B0003207B400B501B50D3308B5073408AE00FA
:1000C0003508AF00803000000000FB200000000079
:1000D00083120000B7002F08B6003208AE003308C4
:1000E000AF00803000000000FB2000000000831201
:1000F0000000B900B5002F08B400B8000230320784
:10010000B400B501B50D3308B5073408AE003508A5
:10011000AF00803000000000FB20000000008312D0
:100120000000B500BB002F08BA00B4008312000025
:100130003608BA003708BB00FF30B607031CB70308
:100140003B083A040319C7283808AE003908AF0045
:100150008030000000001C2100000000831200001D
:10016000BA0034088312031384008313831200003F
:10017000351883173A088312031380008312000096
:10018000B80A0319B90AB40A0319B50A9628063041
:1001900083120000B2070318B30A492800000000C8
:1001A0002F290800BC00E420BC03031DD32808004D
:1001B000BD00EC20BD03031DD9280800BE00F420BB
:1001C000BE03031DDF2808001730BF00BF03031D57
:1001D000E628000000000800F830C000C003031D3E
:1001E000EE28000000000800FA30C100EC20C10336
:1001F000031DF6280800003A03190329803A031961
:100200000D29AF0100342E08840083132F188317A3
:100210000008AF00840A00080800000000002A213E
:10022000AD00AE0FAF03AF0A000000002A21AC0002
:100230002D08AF002C080800003A03192329803A42
:1002400003192A2900342E08840083132F188317DA
:10025000000808002F088A002E0882000800831674
:10026000FF239000831264001530831685009F01E0
:1002700007308312990014308316950015309600CC
:10028000811383128501851685148B018B158B17BD
:100290006300482908000134003402340034443437
:0602A000003401340034BB
:02400E00843FED
:00000001FF
