:0600000000002F2800346F
:08000800A200030E8301A10018
:100010000A088A01A0000408C30083120B1C2328CD
:10002000051E142805191C288312851E1928851001
:1000300021288312851621288312051C2128851268
:10004000851483120B100130D72043088400200848
:100050008A008301210E8300A20E220E0900433084
:10006000AE000130AF00803000000000F42000003E
:10007000000083120000B1002F08B0004530B2002C
:100080000130B300831200003008B4003108B5001D
:10009000FF30B007031CB103340835040319C72827
:1000A00004303207B400B501B50D3308B507340884
:1000B000AE003508AF00803000000000F4200000E2
:1000C000000083120000B7002F08B6003208AE000F
:1000D0003308AF00803000000000F4200000000072
:1000E00083120000B900B5002F08B800B400023038
:1000F0003207B400B501B50D3308B5073408AE00BA
:100100003508AF00803000000000F420000000003F
:1001100083120000B500BB002F08B400BA008312A0
:1001200000003608BA003708BB00FF30B607031CD2
:10013000B7033A083B040319C0283808AE00390851
:10014000AF00803000000000152100000000831285
:100150000000BA003408831203138400831383124F
:100160000000351883173A088312031380008312A6
:100170000000B80A0319B90AB40A0319B50A8F288E
:10018000063083120000B2070318B30A42280000A9
:10019000000028290800BC00DD20BC03031DCC287A
:1001A0000800BD00E520BD03031DD2280800BE00E5
:1001B000ED20BE03031DD82808001730BF00BF0381
:1001C000031DDF28000000000800F830C000C00355
:1001D000031DE728000000000800FA30C100E520F8
:1001E000C103031DEF280800003A0319FC28803AD8
:1001F00003190629AF0100342E08840083132F1839
:1002000083170008AF00840A0008080000000000FF
:100210002321AD00AE0FAF03AF0A00000000232181
:10022000AC002D08AF002C080800003A03191C2967
:10023000803A0319232900342E08840083132F18D1
:100240008317000808002F088A002E088200080083
:100250008316FF23900083126400153083168500F7
:100260009F010730831299001430831695001530D2
:10027000960081138312850185148B018B158B17D2
:100280006300402908000134003402340034423451
:06029000003401340034CB
:02400E00A43FCD
:00000001FF
