:060000000000312800346D
:08000800A200030E8301A10018
:100010000A088A01A0000408C30083120B1C2528CB
:10002000051E142805191E288312851E19288510FF
:100030002328831285161430D92023288312051C07
:1000400023288512851483120B100130D920430810
:10005000840020088A008301210E8300A20E220E54
:1000600009004530AE000130AF00803000000000D4
:10007000F6200000000083120000B1002F08B0003D
:100080004730B2000130B300831200003008B400E2
:100090003108B500FF30B007031CB1033408350444
:1000A0000319C92804303207B400B501B50D33086F
:1000B000B5073408AE003508AF00803000000000FE
:1000C000F6200000000083120000B7002F08B600E1
:1000D0003208AE003308AF00803000000000F62088
:1000E0000000000083120000B900B5002F08B8001E
:1000F000B40002303207B400B501B50D3308B507BE
:100100003408AE003508AF00803000000000F62053
:100110000000000083120000B500BB002F08B400EF
:10012000BA00831200003608BA003708BB00FF305F
:10013000B607031CB7033A083B040319C228380862
:10014000AE003908AF008030000000001721000029
:10015000000083120000BA003408831203138400E5
:10016000831383120000351883173A088312031390
:10017000800083120000B80A0319B90AB40A0319EF
:10018000B50A9128063083120000B2070318B30A9B
:100190004428000000002A290800BC00DF20BC031E
:1001A000031DCE280800BD00E720BD03031DD42891
:1001B0000800BE00EF20BE03031DDA280800173038
:1001C000BF00BF03031DE128000000000800F83055
:1001D000C000C003031DE928000000000800FA3039
:1001E000C100E720C103031DF1280800003A0319EC
:1001F000FE28803A03190829AF0100342E08840034
:1002000083132F1883170008AF00840A0008080022
:10021000000000002521AD00AE0FAF03AF0A0000C3
:1002200000002521AC002D08AF002C080800003A82
:1002300003191E29803A0319252900342E08840049
:1002400083132F188317000808002F088A002E0830
:10025000820008008316FF2390008312640015308B
:10026000831685009F01073083129900143083168E
:1002700095001530960081138312850185148B013A
:100280008B158B17630042290800013400340234B7
:0A029000003442340034013400341D
:02400E00A43FCD
:00000001FF
